{
  "_format": "hh-sol-artifact-1",
  "contractName": "FinEuroToken",
  "sourceName": "contracts/FinEuroToken.sol",
  "abi": [
    {
      "inputs": [
        {
          "internalType": "address",
          "name": "initialOwner",
          "type": "address"
        }
      ],
      "stateMutability": "nonpayable",
      "type": "constructor"
    },
    {
      "inputs": [],
      "name": "ECDSAInvalidSignature",
      "type": "error"
    },
    {
      "inputs": [
        {
          "internalType": "uint256",
          "name": "length",
          "type": "uint256"
        }
      ],
      "name": "ECDSAInvalidSignatureLength",
      "type": "error"
    },
    {
      "inputs": [
        {
          "internalType": "bytes32",
          "name": "s",
          "type": "bytes32"
        }
      ],
      "name": "ECDSAInvalidSignatureS",
      "type": "error"
    },
    {
      "inputs": [
        {
          "internalType": "address",
          "name": "spender",
          "type": "address"
        },
        {
          "internalType": "uint256",
          "name": "allowance",
          "type": "uint256"
        },
        {
          "internalType": "uint256",
          "name": "needed",
          "type": "uint256"
        }
      ],
      "name": "ERC20InsufficientAllowance",
      "type": "error"
    },
    {
      "inputs": [
        {
          "internalType": "address",
          "name": "sender",
          "type": "address"
        },
        {
          "internalType": "uint256",
          "name": "balance",
          "type": "uint256"
        },
        {
          "internalType": "uint256",
          "name": "needed",
          "type": "uint256"
        }
      ],
      "name": "ERC20InsufficientBalance",
      "type": "error"
    },
    {
      "inputs": [
        {
          "internalType": "address",
          "name": "approver",
          "type": "address"
        }
      ],
      "name": "ERC20InvalidApprover",
      "type": "error"
    },
    {
      "inputs": [
        {
          "internalType": "address",
          "name": "receiver",
          "type": "address"
        }
      ],
      "name": "ERC20InvalidReceiver",
      "type": "error"
    },
    {
      "inputs": [
        {
          "internalType": "address",
          "name": "sender",
          "type": "address"
        }
      ],
      "name": "ERC20InvalidSender",
      "type": "error"
    },
    {
      "inputs": [
        {
          "internalType": "address",
          "name": "spender",
          "type": "address"
        }
      ],
      "name": "ERC20InvalidSpender",
      "type": "error"
    },
    {
      "inputs": [],
      "name": "EnforcedPause",
      "type": "error"
    },
    {
      "inputs": [],
      "name": "ExpectedPause",
      "type": "error"
    },
    {
      "inputs": [],
      "name": "InvalidShortString",
      "type": "error"
    },
    {
      "inputs": [
        {
          "internalType": "address",
          "name": "owner",
          "type": "address"
        }
      ],
      "name": "OwnableInvalidOwner",
      "type": "error"
    },
    {
      "inputs": [
        {
          "internalType": "address",
          "name": "account",
          "type": "address"
        }
      ],
      "name": "OwnableUnauthorizedAccount",
      "type": "error"
    },
    {
      "inputs": [
        {
          "internalType": "string",
          "name": "str",
          "type": "string"
        }
      ],
      "name": "StringTooLong",
      "type": "error"
    },
    {
      "anonymous": false,
      "inputs": [
        {
          "indexed": true,
          "internalType": "address",
          "name": "owner",
          "type": "address"
        },
        {
          "indexed": true,
          "internalType": "address",
          "name": "spender",
          "type": "address"
        },
        {
          "indexed": false,
          "internalType": "uint256",
          "name": "value",
          "type": "uint256"
        }
      ],
      "name": "Approval",
      "type": "event"
    },
    {
      "anonymous": false,
      "inputs": [
        {
          "indexed": true,
          "internalType": "address",
          "name": "from",
          "type": "address"
        },
        {
          "indexed": false,
          "internalType": "uint256",
          "name": "amount",
          "type": "uint256"
        },
        {
          "indexed": false,
          "internalType": "string",
          "name": "reason",
          "type": "string"
        }
      ],
      "name": "BurnedFIN",
      "type": "event"
    },
    {
      "anonymous": false,
      "inputs": [],
      "name": "EIP712DomainChanged",
      "type": "event"
    },
    {
      "anonymous": false,
      "inputs": [
        {
          "indexed": false,
          "internalType": "string",
          "name": "cid",
          "type": "string"
        },
        {
          "indexed": false,
          "internalType": "string",
          "name": "txCode",
          "type": "string"
        },
        {
          "indexed": true,
          "internalType": "address",
          "name": "receiver",
          "type": "address"
        },
        {
          "indexed": false,
          "internalType": "uint256",
          "name": "amount",
          "type": "uint256"
        }
      ],
      "name": "MintedFIN",
      "type": "event"
    },
    {
      "anonymous": false,
      "inputs": [
        {
          "indexed": true,
          "internalType": "address",
          "name": "previousOwner",
          "type": "address"
        },
        {
          "indexed": true,
          "internalType": "address",
          "name": "newOwner",
          "type": "address"
        }
      ],
      "name": "OwnershipTransferred",
      "type": "event"
    },
    {
      "anonymous": false,
      "inputs": [
        {
          "indexed": false,
          "internalType": "address",
          "name": "account",
          "type": "address"
        }
      ],
      "name": "Paused",
      "type": "event"
    },
    {
      "anonymous": false,
      "inputs": [
        {
          "indexed": true,
          "internalType": "address",
          "name": "to",
          "type": "address"
        },
        {
          "indexed": false,
          "internalType": "uint256",
          "name": "amountIDR",
          "type": "uint256"
        },
        {
          "indexed": false,
          "internalType": "string",
          "name": "note",
          "type": "string"
        }
      ],
      "name": "PayoutIDR",
      "type": "event"
    },
    {
      "anonymous": false,
      "inputs": [
        {
          "indexed": true,
          "internalType": "address",
          "name": "from",
          "type": "address"
        },
        {
          "indexed": true,
          "internalType": "address",
          "name": "to",
          "type": "address"
        },
        {
          "indexed": false,
          "internalType": "uint256",
          "name": "value",
          "type": "uint256"
        }
      ],
      "name": "Transfer",
      "type": "event"
    },
    {
      "anonymous": false,
      "inputs": [
        {
          "indexed": false,
          "internalType": "address",
          "name": "account",
          "type": "address"
        }
      ],
      "name": "Unpaused",
      "type": "event"
    },
    {
      "inputs": [
        {
          "internalType": "address",
          "name": "owner",
          "type": "address"
        },
        {
          "internalType": "address",
          "name": "spender",
          "type": "address"
        }
      ],
      "name": "allowance",
      "outputs": [
        {
          "internalType": "uint256",
          "name": "",
          "type": "uint256"
        }
      ],
      "stateMutability": "view",
      "type": "function"
    },
    {
      "inputs": [
        {
          "internalType": "address",
          "name": "spender",
          "type": "address"
        },
        {
          "internalType": "uint256",
          "name": "value",
          "type": "uint256"
        }
      ],
      "name": "approve",
      "outputs": [
        {
          "internalType": "bool",
          "name": "",
          "type": "bool"
        }
      ],
      "stateMutability": "nonpayable",
      "type": "function"
    },
    {
      "inputs": [
        {
          "internalType": "address",
          "name": "account",
          "type": "address"
        }
      ],
      "name": "balanceOf",
      "outputs": [
        {
          "internalType": "uint256",
          "name": "",
          "type": "uint256"
        }
      ],
      "stateMutability": "view",
      "type": "function"
    },
    {
      "inputs": [
        {
          "internalType": "uint256",
          "name": "value",
          "type": "uint256"
        }
      ],
      "name": "burn",
      "outputs": [],
      "stateMutability": "nonpayable",
      "type": "function"
    },
    {
      "inputs": [
        {
          "internalType": "address",
          "name": "account",
          "type": "address"
        },
        {
          "internalType": "uint256",
          "name": "value",
          "type": "uint256"
        }
      ],
      "name": "burnFrom",
      "outputs": [],
      "stateMutability": "nonpayable",
      "type": "function"
    },
    {
      "inputs": [
        {
          "internalType": "uint256",
          "name": "amount",
          "type": "uint256"
        },
        {
          "internalType": "string",
          "name": "reason",
          "type": "string"
        }
      ],
      "name": "burnWithReason",
      "outputs": [],
      "stateMutability": "nonpayable",
      "type": "function"
    },
    {
      "inputs": [],
      "name": "decimals",
      "outputs": [
        {
          "internalType": "uint8",
          "name": "",
          "type": "uint8"
        }
      ],
      "stateMutability": "view",
      "type": "function"
    },
    {
      "inputs": [],
      "name": "eip712Domain",
      "outputs": [
        {
          "internalType": "bytes1",
          "name": "fields",
          "type": "bytes1"
        },
        {
          "internalType": "string",
          "name": "name",
          "type": "string"
        },
        {
          "internalType": "string",
          "name": "version",
          "type": "string"
        },
        {
          "internalType": "uint256",
          "name": "chainId",
          "type": "uint256"
        },
        {
          "internalType": "address",
          "name": "verifyingContract",
          "type": "address"
        },
        {
          "internalType": "bytes32",
          "name": "salt",
          "type": "bytes32"
        },
        {
          "internalType": "uint256[]",
          "name": "extensions",
          "type": "uint256[]"
        }
      ],
      "stateMutability": "view",
      "type": "function"
    },
    {
      "inputs": [
        {
          "internalType": "string",
          "name": "cid",
          "type": "string"
        },
        {
          "internalType": "string",
          "name": "txCode",
          "type": "string"
        },
        {
          "internalType": "address",
          "name": "receiver",
          "type": "address"
        },
        {
          "internalType": "uint256",
          "name": "amount",
          "type": "uint256"
        }
      ],
      "name": "mintFromFIN",
      "outputs": [],
      "stateMutability": "nonpayable",
      "type": "function"
    },
    {
      "inputs": [
        {
          "components": [
            {
              "internalType": "string",
              "name": "cid",
              "type": "string"
            },
            {
              "internalType": "string",
              "name": "txCode",
              "type": "string"
            },
            {
              "internalType": "address",
              "name": "receiver",
              "type": "address"
            },
            {
              "internalType": "uint256",
              "name": "amount",
              "type": "uint256"
            },
            {
              "internalType": "uint256",
              "name": "nonce",
              "type": "uint256"
            }
          ],
          "internalType": "struct FinEuroToken.FINPayload",
          "name": "payload",
          "type": "tuple"
        },
        {
          "internalType": "bytes",
          "name": "signature",
          "type": "bytes"
        }
      ],
      "name": "mintWithSig",
      "outputs": [],
      "stateMutability": "nonpayable",
      "type": "function"
    },
    {
      "inputs": [],
      "name": "name",
      "outputs": [
        {
          "internalType": "string",
          "name": "",
          "type": "string"
        }
      ],
      "stateMutability": "view",
      "type": "function"
    },
    {
      "inputs": [],
      "name": "owner",
      "outputs": [
        {
          "internalType": "address",
          "name": "",
          "type": "address"
        }
      ],
      "stateMutability": "view",
      "type": "function"
    },
    {
      "inputs": [],
      "name": "pause",
      "outputs": [],
      "stateMutability": "nonpayable",
      "type": "function"
    },
    {
      "inputs": [],
      "name": "paused",
      "outputs": [
        {
          "internalType": "bool",
          "name": "",
          "type": "bool"
        }
      ],
      "stateMutability": "view",
      "type": "function"
    },
    {
      "inputs": [
        {
          "internalType": "address",
          "name": "to",
          "type": "address"
        },
        {
          "internalType": "uint256",
          "name": "amountIDR",
          "type": "uint256"
        },
        {
          "internalType": "string",
          "name": "note",
          "type": "string"
        }
      ],
      "name": "payoutIDR",
      "outputs": [],
      "stateMutability": "nonpayable",
      "type": "function"
    },
    {
      "inputs": [],
      "name": "renounceOwnership",
      "outputs": [],
      "stateMutability": "nonpayable",
      "type": "function"
    },
    {
      "inputs": [
        {
          "internalType": "address",
          "name": "validator",
          "type": "address"
        },
        {
          "internalType": "bool",
          "name": "status",
          "type": "bool"
        }
      ],
      "name": "setValidator",
      "outputs": [],
      "stateMutability": "nonpayable",
      "type": "function"
    },
    {
      "inputs": [],
      "name": "symbol",
      "outputs": [
        {
          "internalType": "string",
          "name": "",
          "type": "string"
        }
      ],
      "stateMutability": "view",
      "type": "function"
    },
    {
      "inputs": [],
      "name": "totalSupply",
      "outputs": [
        {
          "internalType": "uint256",
          "name": "",
          "type": "uint256"
        }
      ],
      "stateMutability": "view",
      "type": "function"
    },
    {
      "inputs": [
        {
          "internalType": "address",
          "name": "to",
          "type": "address"
        },
        {
          "internalType": "uint256",
          "name": "value",
          "type": "uint256"
        }
      ],
      "name": "transfer",
      "outputs": [
        {
          "internalType": "bool",
          "name": "",
          "type": "bool"
        }
      ],
      "stateMutability": "nonpayable",
      "type": "function"
    },
    {
      "inputs": [
        {
          "internalType": "address",
          "name": "from",
          "type": "address"
        },
        {
          "internalType": "address",
          "name": "to",
          "type": "address"
        },
        {
          "internalType": "uint256",
          "name": "value",
          "type": "uint256"
        }
      ],
      "name": "transferFrom",
      "outputs": [
        {
          "internalType": "bool",
          "name": "",
          "type": "bool"
        }
      ],
      "stateMutability": "nonpayable",
      "type": "function"
    },
    {
      "inputs": [
        {
          "internalType": "address",
          "name": "newOwner",
          "type": "address"
        }
      ],
      "name": "transferOwnership",
      "outputs": [],
      "stateMutability": "nonpayable",
      "type": "function"
    },
    {
      "inputs": [],
      "name": "unpause",
      "outputs": [],
      "stateMutability": "nonpayable",
      "type": "function"
    },
    {
      "inputs": [
        {
          "internalType": "bytes32",
          "name": "",
          "type": "bytes32"
        }
      ],
      "name": "usedHash",
      "outputs": [
        {
          "internalType": "bool",
          "name": "",
          "type": "bool"
        }
      ],
      "stateMutability": "view",
      "type": "function"
    },
    {
      "inputs": [
        {
          "internalType": "address",
          "name": "",
          "type": "address"
        }
      ],
      "name": "validators",
      "outputs": [
        {
          "internalType": "bool",
          "name": "",
          "type": "bool"
        }
      ],
      "stateMutability": "view",
      "type": "function"
    }
  ],
  "bytecode": "0x6101606040523480156200001257600080fd5b506040516200396f3803806200396f8339818101604052810190620000389190620004d1565b6040518060400160405280600c81526020017f46696e4575726f546f6b656e00000000000000000000000000000000000000008152506040518060400160405280600181526020017f3100000000000000000000000000000000000000000000000000000000000000815250826040518060400160405280600e81526020017f46494e204575726f20546f6b656e0000000000000000000000000000000000008152506040518060400160405280600781526020017f46494e4555524f0000000000000000000000000000000000000000000000000081525081600390816200012291906200077d565b5080600490816200013491906200077d565b505050600073ffffffffffffffffffffffffffffffffffffffff168173ffffffffffffffffffffffffffffffffffffffff1603620001ac5760006040517f1e4fbdf7000000000000000000000000000000000000000000000000000000008152600401620001a3919062000875565b60405180910390fd5b620001bd816200027560201b60201c565b50620001d46006836200033b60201b90919060201c565b6101208181525050620001f26007826200033b60201b90919060201c565b6101408181525050818051906020012060e08181525050808051906020012061010081815250504660a08181525050620002316200039360201b60201c565b608081815250503073ffffffffffffffffffffffffffffffffffffffff1660c08173ffffffffffffffffffffffffffffffffffffffff168152505050505062000a70565b6000600560019054906101000a900473ffffffffffffffffffffffffffffffffffffffff16905081600560016101000a81548173ffffffffffffffffffffffffffffffffffffffff021916908373ffffffffffffffffffffffffffffffffffffffff1602179055508173ffffffffffffffffffffffffffffffffffffffff168173ffffffffffffffffffffffffffffffffffffffff167f8be0079c531659141344cd1fd0a4f28419497f9722a3daafe3b4186f6b6457e060405160405180910390a35050565b600060208351101562000361576200035983620003f060201b60201c565b90506200038d565b8262000373836200045d60201b60201c565b60000190816200038491906200077d565b5060ff60001b90505b92915050565b60007f8b73c3c69bb8fe3d512ecc4cf759cc79239f7b179b0ffacaa9a75d522b39400f60e051610100514630604051602001620003d5959493929190620008be565b60405160208183030381529060405280519060200120905090565b600080829050601f815111156200044057826040517f305a27a9000000000000000000000000000000000000000000000000000000008152600401620004379190620009aa565b60405180910390fd5b8051816200044e9062000a00565b60001c1760001b915050919050565b6000819050919050565b600080fd5b600073ffffffffffffffffffffffffffffffffffffffff82169050919050565b600062000499826200046c565b9050919050565b620004ab816200048c565b8114620004b757600080fd5b50565b600081519050620004cb81620004a0565b92915050565b600060208284031215620004ea57620004e962000467565b5b6000620004fa84828501620004ba565b91505092915050565b600081519050919050565b7f4e487b7100000000000000000000000000000000000000000000000000000000600052604160045260246000fd5b7f4e487b7100000000000000000000000000000000000000000000000000000000600052602260045260246000fd5b600060028204905060018216806200058557607f821691505b6020821081036200059b576200059a6200053d565b5b50919050565b60008190508160005260206000209050919050565b60006020601f8301049050919050565b600082821b905092915050565b600060088302620006057fffffffffffffffffffffffffffffffffffffffffffffffffffffffffffffffff82620005c6565b620006118683620005c6565b95508019841693508086168417925050509392505050565b6000819050919050565b6000819050919050565b60006200065e62000658620006528462000629565b62000633565b62000629565b9050919050565b6000819050919050565b6200067a836200063d565b62000692620006898262000665565b848454620005d3565b825550505050565b600090565b620006a96200069a565b620006b68184846200066f565b505050565b5b81811015620006de57620006d26000826200069f565b600181019050620006bc565b5050565b601f8211156200072d57620006f781620005a1565b6200070284620005b6565b8101602085101562000712578190505b6200072a6200072185620005b6565b830182620006bb565b50505b505050565b600082821c905092915050565b6000620007526000198460080262000732565b1980831691505092915050565b60006200076d83836200073f565b9150826002028217905092915050565b620007888262000503565b67ffffffffffffffff811115620007a457620007a36200050e565b5b620007b082546200056c565b620007bd828285620006e2565b600060209050601f831160018114620007f55760008415620007e0578287015190505b620007ec85826200075f565b8655506200085c565b601f1984166200080586620005a1565b60005b828110156200082f5784890151825560018201915060208501945060208101905062000808565b868310156200084f57848901516200084b601f8916826200073f565b8355505b6001600288020188555050505b505050505050565b6200086f816200048c565b82525050565b60006020820190506200088c600083018462000864565b92915050565b6000819050919050565b620008a78162000892565b82525050565b620008b88162000629565b82525050565b600060a082019050620008d560008301886200089c565b620008e460208301876200089c565b620008f360408301866200089c565b620009026060830185620008ad565b62000911608083018462000864565b9695505050505050565b600082825260208201905092915050565b60005b838110156200094c5780820151818401526020810190506200092f565b60008484015250505050565b6000601f19601f8301169050919050565b6000620009768262000503565b6200098281856200091b565b9350620009948185602086016200092c565b6200099f8162000958565b840191505092915050565b60006020820190508181036000830152620009c6818462000969565b905092915050565b600081519050919050565b6000819050602082019050919050565b6000620009f7825162000892565b80915050919050565b600062000a0d82620009ce565b8262000a1984620009d9565b905062000a2681620009e9565b9250602082101562000a695762000a647fffffffffffffffffffffffffffffffffffffffffffffffffffffffffffffffff83602003600802620005c6565b831692505b5050919050565b60805160a05160c05160e051610100516101205161014051612ea462000acb600039600061146a0152600061142f01526000611a8901526000611a68015260006116c70152600061171d015260006117460152612ea46000f3fe608060405234801561001057600080fd5b50600436106101735760003560e01c806370a08231116100de5780638da5cb5b11610097578063dd62ed3e11610071578063dd62ed3e14610406578063f2fde38b14610436578063fa52c7d814610452578063fed633d21461048257610173565b80638da5cb5b1461039a57806395d89b41146103b8578063a9059cbb146103d657610173565b806370a08231146102fa578063715018a61461032a57806378fccab51461033457806379cc6790146103505780638456cb591461036c57806384b0196e1461037657610173565b80633f4ba83a116101305780633f4ba83a1461024e57806342966c68146102585780634623c91d14610274578063560ebbd1146102905780635c975abb146102c05780636e7041ce146102de57610173565b806306fdde0314610178578063091273a714610196578063095ea7b3146101b257806318160ddd146101e257806323b872dd14610200578063313ce56714610230575b600080fd5b61018061049e565b60405161018d9190611f46565b60405180910390f35b6101b060048036038101906101ab9190612017565b610530565b005b6101cc60048036038101906101c791906120d5565b6105a7565b6040516101d99190612130565b60405180910390f35b6101ea6105ca565b6040516101f7919061215a565b60405180910390f35b61021a60048036038101906102159190612175565b6105d4565b6040516102279190612130565b60405180910390f35b610238610603565b60405161024591906121e4565b60405180910390f35b61025661060c565b005b610272600480360381019061026d91906121ff565b61061e565b005b61028e60048036038101906102899190612258565b610632565b005b6102aa60048036038101906102a591906122ce565b610695565b6040516102b79190612130565b60405180910390f35b6102c86106b5565b6040516102d59190612130565b60405180910390f35b6102f860048036038101906102f39190612375565b6106cc565b005b610314600480360381019061030f91906123f1565b610a18565b604051610321919061215a565b60405180910390f35b610332610a60565b005b61034e6004803603810190610349919061241e565b610a74565b005b61036a600480360381019061036591906120d5565b610ad4565b005b610374610af4565b005b61037e610b06565b60405161039197969594939291906125a9565b60405180910390f35b6103a2610bb0565b6040516103af919061262d565b60405180910390f35b6103c0610bda565b6040516103cd9190611f46565b60405180910390f35b6103f060048036038101906103eb91906120d5565b610c6c565b6040516103fd9190612130565b60405180910390f35b610420600480360381019061041b9190612648565b610c8f565b60405161042d919061215a565b60405180910390f35b610450600480360381019061044b91906123f1565b610d16565b005b61046c600480360381019061046791906123f1565b610d9c565b6040516104799190612130565b60405180910390f35b61049c600480360381019061049791906127b8565b610dbc565b005b6060600380546104ad90612886565b80601f01602080910402602001604051908101604052809291908181526020018280546104d990612886565b80156105265780601f106104fb57610100808354040283529160200191610526565b820191906000526020600020905b81548152906001019060200180831161050957829003601f168201915b5050505050905090565b610538610ee5565b610549610543610f26565b84610f2e565b610551610f26565b73ffffffffffffffffffffffffffffffffffffffff167f66fb36350f08bbe161621acf8cc2b96db2b1c8f791d7444a3acde6d25066e84984848460405161059a939291906128e4565b60405180910390a2505050565b6000806105b2610f26565b90506105bf818585610fb0565b600191505092915050565b6000600254905090565b6000806105df610f26565b90506105ec858285610fc2565b6105f7858585611057565b60019150509392505050565b60006012905090565b61061461114b565b61061c6111d2565b565b61062f610629610f26565b82610f2e565b50565b61063a61114b565b80600960008473ffffffffffffffffffffffffffffffffffffffff1673ffffffffffffffffffffffffffffffffffffffff16815260200190815260200160002060006101000a81548160ff0219169083151502179055505050565b60086020528060005260406000206000915054906101000a900460ff1681565b6000600560009054906101000a900460ff16905090565b600061078b7facc621e8b37e73f387cca295bcdea805343a505bf427b67634a24fce55510bb88580600001906107029190612925565b6040516107109291906129b8565b60405180910390208680602001906107289190612925565b6040516107369291906129b8565b604051809103902087604001602081019061075191906123f1565b88606001358960800135604051602001610770969594939291906129d1565b60405160208183030381529060405280519060200120611235565b905060006107e684848080601f016020809104026020016040519081016040528093929190818152602001838380828437600081840152601f19601f820116905080830192505050505050508361124f90919063ffffffff16565b9050600960008273ffffffffffffffffffffffffffffffffffffffff1673ffffffffffffffffffffffffffffffffffffffff16815260200190815260200160002060009054906101000a900460ff16610874576040517f08c379a000000000000000000000000000000000000000000000000000000000815260040161086b90612a7e565b60405180910390fd5b60008580600001906108869190612925565b8780602001906108969190612925565b8960400160208101906108a991906123f1565b8a606001356040516020016108c396959493929190612b37565b6040516020818303038152906040528051906020012090506008600082815260200190815260200160002060009054906101000a900460ff161561093c576040517f08c379a000000000000000000000000000000000000000000000000000000000815260040161093390612bcd565b60405180910390fd5b60016008600083815260200190815260200160002060006101000a81548160ff02191690831515021790555061098886604001602081019061097e91906123f1565b876060013561127b565b85604001602081019061099b91906123f1565b73ffffffffffffffffffffffffffffffffffffffff167f83ef0c15471db589e11e12fe2a2390a4dd1b49c4c9299df6ad9246ceb2286ace8780600001906109e29190612925565b8980602001906109f29190612925565b8b60600135604051610a08959493929190612bed565b60405180910390a2505050505050565b60008060008373ffffffffffffffffffffffffffffffffffffffff1673ffffffffffffffffffffffffffffffffffffffff168152602001908152602001600020549050919050565b610a6861114b565b610a7260006112fd565b565b610a7c61114b565b8373ffffffffffffffffffffffffffffffffffffffff167fca6658d85c6c09085db5742e52cd62d6e7975512f25e38a661261a25f75b086d848484604051610ac6939291906128e4565b60405180910390a250505050565b610ae682610ae0610f26565b83610fc2565b610af08282610f2e565b5050565b610afc61114b565b610b046113c3565b565b600060608060008060006060610b1a611426565b610b22611461565b46306000801b600067ffffffffffffffff811115610b4357610b4261268d565b5b604051908082528060200260200182016040528015610b715781602001602082028036833780820191505090505b507f0f00000000000000000000000000000000000000000000000000000000000000959493929190965096509650965096509650965090919293949596565b6000600560019054906101000a900473ffffffffffffffffffffffffffffffffffffffff16905090565b606060048054610be990612886565b80601f0160208091040260200160405190810160405280929190818152602001828054610c1590612886565b8015610c625780601f10610c3757610100808354040283529160200191610c62565b820191906000526020600020905b815481529060010190602001808311610c4557829003601f168201915b5050505050905090565b600080610c77610f26565b9050610c84818585611057565b600191505092915050565b6000600160008473ffffffffffffffffffffffffffffffffffffffff1673ffffffffffffffffffffffffffffffffffffffff16815260200190815260200160002060008373ffffffffffffffffffffffffffffffffffffffff1673ffffffffffffffffffffffffffffffffffffffff16815260200190815260200160002054905092915050565b610d1e61114b565b600073ffffffffffffffffffffffffffffffffffffffff168173ffffffffffffffffffffffffffffffffffffffff1603610d905760006040517f1e4fbdf7000000000000000000000000000000000000000000000000000000008152600401610d87919061262d565b60405180910390fd5b610d99816112fd565b50565b60096020528060005260406000206000915054906101000a900460ff1681565b610dc461114b565b600084848484604051602001610ddd9493929190612c67565b6040516020818303038152906040528051906020012090506008600082815260200190815260200160002060009054906101000a900460ff1615610e56576040517f08c379a0000000000000000000000000000000000000000000000000000000008152600401610e4d90612bcd565b60405180910390fd5b60016008600083815260200190815260200160002060006101000a81548160ff021916908315150217905550610e8c838361127b565b8273ffffffffffffffffffffffffffffffffffffffff167f83ef0c15471db589e11e12fe2a2390a4dd1b49c4c9299df6ad9246ceb2286ace868685604051610ed693929190612cad565b60405180910390a25050505050565b610eed6106b5565b15610f24576040517fd93c066500000000000000000000000000000000000000000000000000000000815260040160405180910390fd5b565b600033905090565b600073ffffffffffffffffffffffffffffffffffffffff168273ffffffffffffffffffffffffffffffffffffffff1603610fa05760006040517f96c6fd1e000000000000000000000000000000000000000000000000000000008152600401610f97919061262d565b60405180910390fd5b610fac8260008361149c565b5050565b610fbd83838360016114ac565b505050565b6000610fce8484610c8f565b90507fffffffffffffffffffffffffffffffffffffffffffffffffffffffffffffffff8110156110515781811015611041578281836040517ffb8f41b200000000000000000000000000000000000000000000000000000000815260040161103893929190612cf2565b60405180910390fd5b611050848484840360006114ac565b5b50505050565b600073ffffffffffffffffffffffffffffffffffffffff168373ffffffffffffffffffffffffffffffffffffffff16036110c95760006040517f96c6fd1e0000000000000000000000000000000000000000000000000000000081526004016110c0919061262d565b60405180910390fd5b600073ffffffffffffffffffffffffffffffffffffffff168273ffffffffffffffffffffffffffffffffffffffff160361113b5760006040517fec442f05000000000000000000000000000000000000000000000000000000008152600401611132919061262d565b60405180910390fd5b61114683838361149c565b505050565b611153610f26565b73ffffffffffffffffffffffffffffffffffffffff16611171610bb0565b73ffffffffffffffffffffffffffffffffffffffff16146111d057611194610f26565b6040517f118cdaa70000000000000000000000000000000000000000000000000000000081526004016111c7919061262d565b60405180910390fd5b565b6111da611683565b6000600560006101000a81548160ff0219169083151502179055507f5db9ee0a495bf2e6ff9c91a7834c1ba4fdd244a5e8aa4e537bd38aeae4b073aa61121e610f26565b60405161122b919061262d565b60405180910390a1565b60006112486112426116c3565b8361177a565b9050919050565b60008060008061125f86866117bb565b92509250925061126f8282611817565b82935050505092915050565b600073ffffffffffffffffffffffffffffffffffffffff168273ffffffffffffffffffffffffffffffffffffffff16036112ed5760006040517fec442f050000000000000000000000000000000000000000000000000000000081526004016112e4919061262d565b60405180910390fd5b6112f96000838361149c565b5050565b6000600560019054906101000a900473ffffffffffffffffffffffffffffffffffffffff16905081600560016101000a81548173ffffffffffffffffffffffffffffffffffffffff021916908373ffffffffffffffffffffffffffffffffffffffff1602179055508173ffffffffffffffffffffffffffffffffffffffff168173ffffffffffffffffffffffffffffffffffffffff167f8be0079c531659141344cd1fd0a4f28419497f9722a3daafe3b4186f6b6457e060405160405180910390a35050565b6113cb610ee5565b6001600560006101000a81548160ff0219169083151502179055507f62e78cea01bee320cd4e420270b5ea74000d11b0c9f74754ebdbfc544b05a25861140f610f26565b60405161141c919061262d565b60405180910390a1565b606061145c60067f000000000000000000000000000000000000000000000000000000000000000061197b90919063ffffffff16565b905090565b606061149760077f000000000000000000000000000000000000000000000000000000000000000061197b90919063ffffffff16565b905090565b6114a7838383611a2b565b505050565b600073ffffffffffffffffffffffffffffffffffffffff168473ffffffffffffffffffffffffffffffffffffffff160361151e5760006040517fe602df05000000000000000000000000000000000000000000000000000000008152600401611515919061262d565b60405180910390fd5b600073ffffffffffffffffffffffffffffffffffffffff168373ffffffffffffffffffffffffffffffffffffffff16036115905760006040517f94280d62000000000000000000000000000000000000000000000000000000008152600401611587919061262d565b60405180910390fd5b81600160008673ffffffffffffffffffffffffffffffffffffffff1673ffffffffffffffffffffffffffffffffffffffff16815260200190815260200160002060008573ffffffffffffffffffffffffffffffffffffffff1673ffffffffffffffffffffffffffffffffffffffff16815260200190815260200160002081905550801561167d578273ffffffffffffffffffffffffffffffffffffffff168473ffffffffffffffffffffffffffffffffffffffff167f8c5be1e5ebec7d5bd14f71427d1e84f3dd0314c0f7b2291e5b200ac8c7c3b92584604051611674919061215a565b60405180910390a35b50505050565b61168b6106b5565b6116c1576040517f8dfc202b00000000000000000000000000000000000000000000000000000000815260040160405180910390fd5b565b60007f000000000000000000000000000000000000000000000000000000000000000073ffffffffffffffffffffffffffffffffffffffff163073ffffffffffffffffffffffffffffffffffffffff1614801561173f57507f000000000000000000000000000000000000000000000000000000000000000046145b1561176c577f00000000000000000000000000000000000000000000000000000000000000009050611777565b611774611a43565b90505b90565b60006040517f190100000000000000000000000000000000000000000000000000000000000081528360028201528260228201526042812091505092915050565b600080600060418451036118005760008060006020870151925060408701519150606087015160001a90506117f288828585611ad9565b955095509550505050611810565b60006002855160001b9250925092505b9250925092565b6000600381111561182b5761182a612d29565b5b82600381111561183e5761183d612d29565b5b0315611977576001600381111561185857611857612d29565b5b82600381111561186b5761186a612d29565b5b036118a2576040517ff645eedf00000000000000000000000000000000000000000000000000000000815260040160405180910390fd5b600260038111156118b6576118b5612d29565b5b8260038111156118c9576118c8612d29565b5b0361190e578060001c6040517ffce698f7000000000000000000000000000000000000000000000000000000008152600401611905919061215a565b60405180910390fd5b60038081111561192157611920612d29565b5b82600381111561193457611933612d29565b5b0361197657806040517fd78bce0c00000000000000000000000000000000000000000000000000000000815260040161196d9190612d58565b60405180910390fd5b5b5050565b606060ff60001b83146119985761199183611bcd565b9050611a25565b8180546119a490612886565b80601f01602080910402602001604051908101604052809291908181526020018280546119d090612886565b8015611a1d5780601f106119f257610100808354040283529160200191611a1d565b820191906000526020600020905b815481529060010190602001808311611a0057829003601f168201915b505050505090505b92915050565b611a33610ee5565b611a3e838383611c41565b505050565b60007f8b73c3c69bb8fe3d512ecc4cf759cc79239f7b179b0ffacaa9a75d522b39400f7f00000000000000000000000000000000000000000000000000000000000000007f00000000000000000000000000000000000000000000000000000000000000004630604051602001611abe959493929190612d73565b60405160208183030381529060405280519060200120905090565b60008060007f7fffffffffffffffffffffffffffffff5d576e7357a4501ddfe92f46681b20a08460001c1115611b19576000600385925092509250611bc3565b600060018888888860405160008152602001604052604051611b3e9493929190612dc6565b6020604051602081039080840390855afa158015611b60573d6000803e3d6000fd5b505050602060405103519050600073ffffffffffffffffffffffffffffffffffffffff168173ffffffffffffffffffffffffffffffffffffffff1603611bb457600060016000801b93509350935050611bc3565b8060008060001b935093509350505b9450945094915050565b60606000611bda83611e66565b90506000602067ffffffffffffffff811115611bf957611bf861268d565b5b6040519080825280601f01601f191660200182016040528015611c2b5781602001600182028036833780820191505090505b5090508181528360208201528092505050919050565b600073ffffffffffffffffffffffffffffffffffffffff168373ffffffffffffffffffffffffffffffffffffffff1603611c93578060026000828254611c879190612e3a565b92505081905550611d66565b60008060008573ffffffffffffffffffffffffffffffffffffffff1673ffffffffffffffffffffffffffffffffffffffff16815260200190815260200160002054905081811015611d1f578381836040517fe450d38c000000000000000000000000000000000000000000000000000000008152600401611d1693929190612cf2565b60405180910390fd5b8181036000808673ffffffffffffffffffffffffffffffffffffffff1673ffffffffffffffffffffffffffffffffffffffff16815260200190815260200160002081905550505b600073ffffffffffffffffffffffffffffffffffffffff168273ffffffffffffffffffffffffffffffffffffffff1603611daf5780600260008282540392505081905550611dfc565b806000808473ffffffffffffffffffffffffffffffffffffffff1673ffffffffffffffffffffffffffffffffffffffff168152602001908152602001600020600082825401925050819055505b8173ffffffffffffffffffffffffffffffffffffffff168373ffffffffffffffffffffffffffffffffffffffff167fddf252ad1be2c89b69c2b068fc378daa952ba7f163c4a11628f55a4df523b3ef83604051611e59919061215a565b60405180910390a3505050565b60008060ff8360001c169050601f811115611ead576040517fb3512b0c00000000000000000000000000000000000000000000000000000000815260040160405180910390fd5b80915050919050565b600081519050919050565b600082825260208201905092915050565b60005b83811015611ef0578082015181840152602081019050611ed5565b60008484015250505050565b6000601f19601f8301169050919050565b6000611f1882611eb6565b611f228185611ec1565b9350611f32818560208601611ed2565b611f3b81611efc565b840191505092915050565b60006020820190508181036000830152611f608184611f0d565b905092915050565b6000604051905090565b600080fd5b600080fd5b6000819050919050565b611f8f81611f7c565b8114611f9a57600080fd5b50565b600081359050611fac81611f86565b92915050565b600080fd5b600080fd5b600080fd5b60008083601f840112611fd757611fd6611fb2565b5b8235905067ffffffffffffffff811115611ff457611ff3611fb7565b5b6020830191508360018202830111156120105761200f611fbc565b5b9250929050565b6000806000604084860312156120305761202f611f72565b5b600061203e86828701611f9d565b935050602084013567ffffffffffffffff81111561205f5761205e611f77565b5b61206b86828701611fc1565b92509250509250925092565b600073ffffffffffffffffffffffffffffffffffffffff82169050919050565b60006120a282612077565b9050919050565b6120b281612097565b81146120bd57600080fd5b50565b6000813590506120cf816120a9565b92915050565b600080604083850312156120ec576120eb611f72565b5b60006120fa858286016120c0565b925050602061210b85828601611f9d565b9150509250929050565b60008115159050919050565b61212a81612115565b82525050565b60006020820190506121456000830184612121565b92915050565b61215481611f7c565b82525050565b600060208201905061216f600083018461214b565b92915050565b60008060006060848603121561218e5761218d611f72565b5b600061219c868287016120c0565b93505060206121ad868287016120c0565b92505060406121be86828701611f9d565b9150509250925092565b600060ff82169050919050565b6121de816121c8565b82525050565b60006020820190506121f960008301846121d5565b92915050565b60006020828403121561221557612214611f72565b5b600061222384828501611f9d565b91505092915050565b61223581612115565b811461224057600080fd5b50565b6000813590506122528161222c565b92915050565b6000806040838503121561226f5761226e611f72565b5b600061227d858286016120c0565b925050602061228e85828601612243565b9150509250929050565b6000819050919050565b6122ab81612298565b81146122b657600080fd5b50565b6000813590506122c8816122a2565b92915050565b6000602082840312156122e4576122e3611f72565b5b60006122f2848285016122b9565b91505092915050565b600080fd5b600060a08284031215612316576123156122fb565b5b81905092915050565b60008083601f84011261233557612334611fb2565b5b8235905067ffffffffffffffff81111561235257612351611fb7565b5b60208301915083600182028301111561236e5761236d611fbc565b5b9250929050565b60008060006040848603121561238e5761238d611f72565b5b600084013567ffffffffffffffff8111156123ac576123ab611f77565b5b6123b886828701612300565b935050602084013567ffffffffffffffff8111156123d9576123d8611f77565b5b6123e58682870161231f565b92509250509250925092565b60006020828403121561240757612406611f72565b5b6000612415848285016120c0565b91505092915050565b6000806000806060858703121561243857612437611f72565b5b6000612446878288016120c0565b945050602061245787828801611f9d565b935050604085013567ffffffffffffffff81111561247857612477611f77565b5b61248487828801611fc1565b925092505092959194509250565b60007fff0000000000000000000000000000000000000000000000000000000000000082169050919050565b6124c781612492565b82525050565b6124d681612097565b82525050565b6124e581612298565b82525050565b600081519050919050565b600082825260208201905092915050565b6000819050602082019050919050565b61252081611f7c565b82525050565b60006125328383612517565b60208301905092915050565b6000602082019050919050565b6000612556826124eb565b61256081856124f6565b935061256b83612507565b8060005b8381101561259c5781516125838882612526565b975061258e8361253e565b92505060018101905061256f565b5085935050505092915050565b600060e0820190506125be600083018a6124be565b81810360208301526125d08189611f0d565b905081810360408301526125e48188611f0d565b90506125f3606083018761214b565b61260060808301866124cd565b61260d60a08301856124dc565b81810360c083015261261f818461254b565b905098975050505050505050565b600060208201905061264260008301846124cd565b92915050565b6000806040838503121561265f5761265e611f72565b5b600061266d858286016120c0565b925050602061267e858286016120c0565b9150509250929050565b600080fd5b7f4e487b7100000000000000000000000000000000000000000000000000000000600052604160045260246000fd5b6126c582611efc565b810181811067ffffffffffffffff821117156126e4576126e361268d565b5b80604052505050565b60006126f7611f68565b905061270382826126bc565b919050565b600067ffffffffffffffff8211156127235761272261268d565b5b61272c82611efc565b9050602081019050919050565b82818337600083830152505050565b600061275b61275684612708565b6126ed565b90508281526020810184848401111561277757612776612688565b5b612782848285612739565b509392505050565b600082601f83011261279f5761279e611fb2565b5b81356127af848260208601612748565b91505092915050565b600080600080608085870312156127d2576127d1611f72565b5b600085013567ffffffffffffffff8111156127f0576127ef611f77565b5b6127fc8782880161278a565b945050602085013567ffffffffffffffff81111561281d5761281c611f77565b5b6128298782880161278a565b935050604061283a878288016120c0565b925050606061284b87828801611f9d565b91505092959194509250565b7f4e487b7100000000000000000000000000000000000000000000000000000000600052602260045260246000fd5b6000600282049050600182168061289e57607f821691505b6020821081036128b1576128b0612857565b5b50919050565b60006128c38385611ec1565b93506128d0838584612739565b6128d983611efc565b840190509392505050565b60006040820190506128f9600083018661214b565b818103602083015261290c8184866128b7565b9050949350505050565b600080fd5b600080fd5b600080fd5b6000808335600160200384360303811261294257612941612916565b5b80840192508235915067ffffffffffffffff8211156129645761296361291b565b5b6020830192506001820236038313156129805761297f612920565b5b509250929050565b600081905092915050565b600061299f8385612988565b93506129ac838584612739565b82840190509392505050565b60006129c5828486612993565b91508190509392505050565b600060c0820190506129e660008301896124dc565b6129f360208301886124dc565b612a0060408301876124dc565b612a0d60608301866124cd565b612a1a608083018561214b565b612a2760a083018461214b565b979650505050505050565b7f496e76616c69642076616c696461746f72207369670000000000000000000000600082015250565b6000612a68601583611ec1565b9150612a7382612a32565b602082019050919050565b60006020820190508181036000830152612a9781612a5b565b9050919050565b600081905092915050565b6000612ab58385612a9e565b9350612ac2838584612739565b82840190509392505050565b60008160601b9050919050565b6000612ae682612ace565b9050919050565b6000612af882612adb565b9050919050565b612b10612b0b82612097565b612aed565b82525050565b6000819050919050565b612b31612b2c82611f7c565b612b16565b82525050565b6000612b4482888a612aa9565b9150612b51828688612aa9565b9150612b5d8285612aff565b601482019150612b6d8284612b20565b602082019150819050979650505050505050565b7f416c7265616479206d696e746564000000000000000000000000000000000000600082015250565b6000612bb7600e83611ec1565b9150612bc282612b81565b602082019050919050565b60006020820190508181036000830152612be681612baa565b9050919050565b60006060820190508181036000830152612c088187896128b7565b90508181036020830152612c1d8185876128b7565b9050612c2c604083018461214b565b9695505050505050565b6000612c4182611eb6565b612c4b8185612a9e565b9350612c5b818560208601611ed2565b80840191505092915050565b6000612c738287612c36565b9150612c7f8286612c36565b9150612c8b8285612aff565b601482019150612c9b8284612b20565b60208201915081905095945050505050565b60006060820190508181036000830152612cc78186611f0d565b90508181036020830152612cdb8185611f0d565b9050612cea604083018461214b565b949350505050565b6000606082019050612d0760008301866124cd565b612d14602083018561214b565b612d21604083018461214b565b949350505050565b7f4e487b7100000000000000000000000000000000000000000000000000000000600052602160045260246000fd5b6000602082019050612d6d60008301846124dc565b92915050565b600060a082019050612d8860008301886124dc565b612d9560208301876124dc565b612da260408301866124dc565b612daf606083018561214b565b612dbc60808301846124cd565b9695505050505050565b6000608082019050612ddb60008301876124dc565b612de860208301866121d5565b612df560408301856124dc565b612e0260608301846124dc565b95945050505050565b7f4e487b7100000000000000000000000000000000000000000000000000000000600052601160045260246000fd5b6000612e4582611f7c565b9150612e5083611f7c565b9250828201905080821115612e6857612e67612e0b565b5b9291505056fea264697066735822122069c484dba96c33feb9a4bd38c43efd259afe9b0df59e13106183912d8eebcb9a64736f6c63430008140033",
  "linkReferences": {},
  "deployedLinkReferences": {}
}